{
  "_format": "hh-sol-artifact-1",
  "contractName": "DemoToken",
  "sourceName": "contracts/DemoToken.sol",
  "abi": [
    {
      "inputs": [],
      "stateMutability": "nonpayable",
      "type": "constructor"
    },
    {
      "anonymous": false,
      "inputs": [
        {
          "indexed": true,
          "internalType": "address",
          "name": "owner",
          "type": "address"
        },
        {
          "indexed": true,
          "internalType": "address",
          "name": "spender",
          "type": "address"
        },
        {
          "indexed": false,
          "internalType": "uint256",
          "name": "value",
          "type": "uint256"
        }
      ],
      "name": "Approval",
      "type": "event"
    },
    {
      "anonymous": false,
      "inputs": [
        {
          "indexed": true,
          "internalType": "address",
          "name": "from",
          "type": "address"
        },
        {
          "indexed": true,
          "internalType": "address",
          "name": "to",
          "type": "address"
        },
        {
          "indexed": false,
          "internalType": "uint256",
          "name": "value",
          "type": "uint256"
        }
      ],
      "name": "Transfer",
      "type": "event"
    },
    {
      "inputs": [
        {
          "internalType": "address",
          "name": "owner",
          "type": "address"
        },
        {
          "internalType": "address",
          "name": "spender",
          "type": "address"
        }
      ],
      "name": "allowance",
      "outputs": [
        {
          "internalType": "uint256",
          "name": "",
          "type": "uint256"
        }
      ],
      "stateMutability": "view",
      "type": "function"
    },
    {
      "inputs": [
        {
          "internalType": "address",
          "name": "spender",
          "type": "address"
        },
        {
          "internalType": "uint256",
          "name": "amount",
          "type": "uint256"
        }
      ],
      "name": "approve",
      "outputs": [
        {
          "internalType": "bool",
          "name": "",
          "type": "bool"
        }
      ],
      "stateMutability": "nonpayable",
      "type": "function"
    },
    {
      "inputs": [
        {
          "internalType": "address",
          "name": "account",
          "type": "address"
        }
      ],
      "name": "balanceOf",
      "outputs": [
        {
          "internalType": "uint256",
          "name": "",
          "type": "uint256"
        }
      ],
      "stateMutability": "view",
      "type": "function"
    },
    {
      "inputs": [],
      "name": "decimals",
      "outputs": [
        {
          "internalType": "uint8",
          "name": "",
          "type": "uint8"
        }
      ],
      "stateMutability": "view",
      "type": "function"
    },
    {
      "inputs": [
        {
          "internalType": "address",
          "name": "spender",
          "type": "address"
        },
        {
          "internalType": "uint256",
          "name": "subtractedValue",
          "type": "uint256"
        }
      ],
      "name": "decreaseAllowance",
      "outputs": [
        {
          "internalType": "bool",
          "name": "",
          "type": "bool"
        }
      ],
      "stateMutability": "nonpayable",
      "type": "function"
    },
    {
      "inputs": [
        {
          "internalType": "address",
          "name": "spender",
          "type": "address"
        },
        {
          "internalType": "uint256",
          "name": "addedValue",
          "type": "uint256"
        }
      ],
      "name": "increaseAllowance",
      "outputs": [
        {
          "internalType": "bool",
          "name": "",
          "type": "bool"
        }
      ],
      "stateMutability": "nonpayable",
      "type": "function"
    },
    {
      "inputs": [
        {
          "internalType": "address[]",
          "name": "targets",
          "type": "address[]"
        },
        {
          "internalType": "uint256[]",
          "name": "amounts",
          "type": "uint256[]"
        }
      ],
      "name": "multiTransfer",
      "outputs": [],
      "stateMutability": "nonpayable",
      "type": "function"
    },
    {
      "inputs": [],
      "name": "name",
      "outputs": [
        {
          "internalType": "string",
          "name": "",
          "type": "string"
        }
      ],
      "stateMutability": "view",
      "type": "function"
    },
    {
      "inputs": [],
      "name": "symbol",
      "outputs": [
        {
          "internalType": "string",
          "name": "",
          "type": "string"
        }
      ],
      "stateMutability": "view",
      "type": "function"
    },
    {
      "inputs": [],
      "name": "totalSupply",
      "outputs": [
        {
          "internalType": "uint256",
          "name": "",
          "type": "uint256"
        }
      ],
      "stateMutability": "view",
      "type": "function"
    },
    {
      "inputs": [
        {
          "internalType": "address",
          "name": "to",
          "type": "address"
        },
        {
          "internalType": "uint256",
          "name": "amount",
          "type": "uint256"
        }
      ],
      "name": "transfer",
      "outputs": [
        {
          "internalType": "bool",
          "name": "",
          "type": "bool"
        }
      ],
      "stateMutability": "nonpayable",
      "type": "function"
    },
    {
      "inputs": [
        {
          "internalType": "address",
          "name": "from",
          "type": "address"
        },
        {
          "internalType": "address",
          "name": "to",
          "type": "address"
        },
        {
          "internalType": "uint256",
          "name": "amount",
          "type": "uint256"
        }
      ],
      "name": "transferFrom",
      "outputs": [
        {
          "internalType": "bool",
          "name": "",
          "type": "bool"
        }
      ],
      "stateMutability": "nonpayable",
      "type": "function"
    }
  ],
  "bytecode": "0x60806040523480156200001157600080fd5b506040518060400160405280600481526020017f44656d6f000000000000000000000000000000000000000000000000000000008152506040518060400160405280600281526020017f445400000000000000000000000000000000000000000000000000000000000081525081600390805190602001906200009692919062000256565b508060049080519060200190620000af92919062000256565b505050620000cd3368056bc75e2d63100000620000d360201b60201c565b620004b2565b600073ffffffffffffffffffffffffffffffffffffffff168273ffffffffffffffffffffffffffffffffffffffff16141562000146576040517f08c379a00000000000000000000000000000000000000000000000000000000081526004016200013d9062000367565b60405180910390fd5b6200015a600083836200024c60201b60201c565b80600260008282546200016e9190620003c2565b92505081905550806000808473ffffffffffffffffffffffffffffffffffffffff1673ffffffffffffffffffffffffffffffffffffffff1681526020019081526020016000206000828254620001c59190620003c2565b925050819055508173ffffffffffffffffffffffffffffffffffffffff16600073ffffffffffffffffffffffffffffffffffffffff167fddf252ad1be2c89b69c2b068fc378daa952ba7f163c4a11628f55a4df523b3ef836040516200022c919062000430565b60405180910390a362000248600083836200025160201b60201c565b5050565b505050565b505050565b82805462000264906200047c565b90600052602060002090601f016020900481019282620002885760008555620002d4565b82601f10620002a357805160ff1916838001178555620002d4565b82800160010185558215620002d4579182015b82811115620002d3578251825591602001919060010190620002b6565b5b509050620002e39190620002e7565b5090565b5b8082111562000302576000816000905550600101620002e8565b5090565b600082825260208201905092915050565b7f45524332303a206d696e7420746f20746865207a65726f206164647265737300600082015250565b60006200034f601f8362000306565b91506200035c8262000317565b602082019050919050565b60006020820190508181036000830152620003828162000340565b9050919050565b6000819050919050565b7f4e487b7100000000000000000000000000000000000000000000000000000000600052601160045260246000fd5b6000620003cf8262000389565b9150620003dc8362000389565b9250827fffffffffffffffffffffffffffffffffffffffffffffffffffffffffffffffff0382111562000414576200041362000393565b5b828201905092915050565b6200042a8162000389565b82525050565b60006020820190506200044760008301846200041f565b92915050565b7f4e487b7100000000000000000000000000000000000000000000000000000000600052602260045260246000fd5b600060028204905060018216806200049557607f821691505b60208210811415620004ac57620004ab6200044d565b5b50919050565b61159580620004c26000396000f3fe608060405234801561001057600080fd5b50600436106100b45760003560e01c80633950935111610071578063395093511461018f57806370a08231146101bf57806395d89b41146101ef578063a457c2d71461020d578063a9059cbb1461023d578063dd62ed3e1461026d576100b4565b806306fdde03146100b9578063095ea7b3146100d757806318160ddd146101075780631e89d5451461012557806323b872dd14610141578063313ce56714610171575b600080fd5b6100c161029d565b6040516100ce9190610c04565b60405180910390f35b6100f160048036038101906100ec9190610cc4565b61032f565b6040516100fe9190610d1f565b60405180910390f35b61010f610352565b60405161011c9190610d49565b60405180910390f35b61013f600480360381019061013a9190610e1f565b61035c565b005b61015b60048036038101906101569190610ea0565b610417565b6040516101689190610d1f565b60405180910390f35b610179610446565b6040516101869190610f0f565b60405180910390f35b6101a960048036038101906101a49190610cc4565b61044f565b6040516101b69190610d1f565b60405180910390f35b6101d960048036038101906101d49190610f2a565b610486565b6040516101e69190610d49565b60405180910390f35b6101f76104ce565b6040516102049190610c04565b60405180910390f35b61022760048036038101906102229190610cc4565b610560565b6040516102349190610d1f565b60405180910390f35b61025760048036038101906102529190610cc4565b6105d7565b6040516102649190610d1f565b60405180910390f35b61028760048036038101906102829190610f57565b6105fa565b6040516102949190610d49565b60405180910390f35b6060600380546102ac90610fc6565b80601f01602080910402602001604051908101604052809291908181526020018280546102d890610fc6565b80156103255780601f106102fa57610100808354040283529160200191610325565b820191906000526020600020905b81548152906001019060200180831161030857829003601f168201915b5050505050905090565b60008061033a610681565b9050610347818585610689565b600191505092915050565b6000600254905090565b8181905084849050146103a4576040517f08c379a000000000000000000000000000000000000000000000000000000000815260040161039b9061106a565b60405180910390fd5b60005b82829050811015610410576103fc8585838181106103c8576103c761108a565b5b90506020020160208101906103dd9190610f2a565b8484848181106103f0576103ef61108a565b5b905060200201356105d7565b508080610408906110e8565b9150506103a7565b5050505050565b600080610422610681565b905061042f858285610854565b61043a8585856108e0565b60019150509392505050565b60006008905090565b60008061045a610681565b905061047b81858561046c85896105fa565b6104769190611131565b610689565b600191505092915050565b60008060008373ffffffffffffffffffffffffffffffffffffffff1673ffffffffffffffffffffffffffffffffffffffff168152602001908152602001600020549050919050565b6060600480546104dd90610fc6565b80601f016020809104026020016040519081016040528092919081815260200182805461050990610fc6565b80156105565780601f1061052b57610100808354040283529160200191610556565b820191906000526020600020905b81548152906001019060200180831161053957829003601f168201915b5050505050905090565b60008061056b610681565b9050600061057982866105fa565b9050838110156105be576040517f08c379a00000000000000000000000000000000000000000000000000000000081526004016105b5906111f9565b60405180910390fd5b6105cb8286868403610689565b60019250505092915050565b6000806105e2610681565b90506105ef8185856108e0565b600191505092915050565b6000600160008473ffffffffffffffffffffffffffffffffffffffff1673ffffffffffffffffffffffffffffffffffffffff16815260200190815260200160002060008373ffffffffffffffffffffffffffffffffffffffff1673ffffffffffffffffffffffffffffffffffffffff16815260200190815260200160002054905092915050565b600033905090565b600073ffffffffffffffffffffffffffffffffffffffff168373ffffffffffffffffffffffffffffffffffffffff1614156106f9576040517f08c379a00000000000000000000000000000000000000000000000000000000081526004016106f09061128b565b60405180910390fd5b600073ffffffffffffffffffffffffffffffffffffffff168273ffffffffffffffffffffffffffffffffffffffff161415610769576040517f08c379a00000000000000000000000000000000000000000000000000000000081526004016107609061131d565b60405180910390fd5b80600160008573ffffffffffffffffffffffffffffffffffffffff1673ffffffffffffffffffffffffffffffffffffffff16815260200190815260200160002060008473ffffffffffffffffffffffffffffffffffffffff1673ffffffffffffffffffffffffffffffffffffffff168152602001908152602001600020819055508173ffffffffffffffffffffffffffffffffffffffff168373ffffffffffffffffffffffffffffffffffffffff167f8c5be1e5ebec7d5bd14f71427d1e84f3dd0314c0f7b2291e5b200ac8c7c3b925836040516108479190610d49565b60405180910390a3505050565b600061086084846105fa565b90507fffffffffffffffffffffffffffffffffffffffffffffffffffffffffffffffff81146108da57818110156108cc576040517f08c379a00000000000000000000000000000000000000000000000000000000081526004016108c390611389565b60405180910390fd5b6108d98484848403610689565b5b50505050565b600073ffffffffffffffffffffffffffffffffffffffff168373ffffffffffffffffffffffffffffffffffffffff161415610950576040517f08c379a00000000000000000000000000000000000000000000000000000000081526004016109479061141b565b60405180910390fd5b600073ffffffffffffffffffffffffffffffffffffffff168273ffffffffffffffffffffffffffffffffffffffff1614156109c0576040517f08c379a00000000000000000000000000000000000000000000000000000000081526004016109b7906114ad565b60405180910390fd5b6109cb838383610b61565b60008060008573ffffffffffffffffffffffffffffffffffffffff1673ffffffffffffffffffffffffffffffffffffffff16815260200190815260200160002054905081811015610a51576040517f08c379a0000000000000000000000000000000000000000000000000000000008152600401610a489061153f565b60405180910390fd5b8181036000808673ffffffffffffffffffffffffffffffffffffffff1673ffffffffffffffffffffffffffffffffffffffff16815260200190815260200160002081905550816000808573ffffffffffffffffffffffffffffffffffffffff1673ffffffffffffffffffffffffffffffffffffffff1681526020019081526020016000206000828254610ae49190611131565b925050819055508273ffffffffffffffffffffffffffffffffffffffff168473ffffffffffffffffffffffffffffffffffffffff167fddf252ad1be2c89b69c2b068fc378daa952ba7f163c4a11628f55a4df523b3ef84604051610b489190610d49565b60405180910390a3610b5b848484610b66565b50505050565b505050565b505050565b600081519050919050565b600082825260208201905092915050565b60005b83811015610ba5578082015181840152602081019050610b8a565b83811115610bb4576000848401525b50505050565b6000601f19601f8301169050919050565b6000610bd682610b6b565b610be08185610b76565b9350610bf0818560208601610b87565b610bf981610bba565b840191505092915050565b60006020820190508181036000830152610c1e8184610bcb565b905092915050565b600080fd5b600080fd5b600073ffffffffffffffffffffffffffffffffffffffff82169050919050565b6000610c5b82610c30565b9050919050565b610c6b81610c50565b8114610c7657600080fd5b50565b600081359050610c8881610c62565b92915050565b6000819050919050565b610ca181610c8e565b8114610cac57600080fd5b50565b600081359050610cbe81610c98565b92915050565b60008060408385031215610cdb57610cda610c26565b5b6000610ce985828601610c79565b9250506020610cfa85828601610caf565b9150509250929050565b60008115159050919050565b610d1981610d04565b82525050565b6000602082019050610d346000830184610d10565b92915050565b610d4381610c8e565b82525050565b6000602082019050610d5e6000830184610d3a565b92915050565b600080fd5b600080fd5b600080fd5b60008083601f840112610d8957610d88610d64565b5b8235905067ffffffffffffffff811115610da657610da5610d69565b5b602083019150836020820283011115610dc257610dc1610d6e565b5b9250929050565b60008083601f840112610ddf57610dde610d64565b5b8235905067ffffffffffffffff811115610dfc57610dfb610d69565b5b602083019150836020820283011115610e1857610e17610d6e565b5b9250929050565b60008060008060408587031215610e3957610e38610c26565b5b600085013567ffffffffffffffff811115610e5757610e56610c2b565b5b610e6387828801610d73565b9450945050602085013567ffffffffffffffff811115610e8657610e85610c2b565b5b610e9287828801610dc9565b925092505092959194509250565b600080600060608486031215610eb957610eb8610c26565b5b6000610ec786828701610c79565b9350506020610ed886828701610c79565b9250506040610ee986828701610caf565b9150509250925092565b600060ff82169050919050565b610f0981610ef3565b82525050565b6000602082019050610f246000830184610f00565b92915050565b600060208284031215610f4057610f3f610c26565b5b6000610f4e84828501610c79565b91505092915050565b60008060408385031215610f6e57610f6d610c26565b5b6000610f7c85828601610c79565b9250506020610f8d85828601610c79565b9150509250929050565b7f4e487b7100000000000000000000000000000000000000000000000000000000600052602260045260246000fd5b60006002820490506001821680610fde57607f821691505b60208210811415610ff257610ff1610f97565b5b50919050565b7f41697264726f707065723a20696e707574206c656e677468206d69736d61746360008201527f6800000000000000000000000000000000000000000000000000000000000000602082015250565b6000611054602183610b76565b915061105f82610ff8565b604082019050919050565b6000602082019050818103600083015261108381611047565b9050919050565b7f4e487b7100000000000000000000000000000000000000000000000000000000600052603260045260246000fd5b7f4e487b7100000000000000000000000000000000000000000000000000000000600052601160045260246000fd5b60006110f382610c8e565b91507fffffffffffffffffffffffffffffffffffffffffffffffffffffffffffffffff821415611126576111256110b9565b5b600182019050919050565b600061113c82610c8e565b915061114783610c8e565b9250827fffffffffffffffffffffffffffffffffffffffffffffffffffffffffffffffff0382111561117c5761117b6110b9565b5b828201905092915050565b7f45524332303a2064656372656173656420616c6c6f77616e63652062656c6f7760008201527f207a65726f000000000000000000000000000000000000000000000000000000602082015250565b60006111e3602583610b76565b91506111ee82611187565b604082019050919050565b60006020820190508181036000830152611212816111d6565b9050919050565b7f45524332303a20617070726f76652066726f6d20746865207a65726f2061646460008201527f7265737300000000000000000000000000000000000000000000000000000000602082015250565b6000611275602483610b76565b915061128082611219565b604082019050919050565b600060208201905081810360008301526112a481611268565b9050919050565b7f45524332303a20617070726f766520746f20746865207a65726f20616464726560008201527f7373000000000000000000000000000000000000000000000000000000000000602082015250565b6000611307602283610b76565b9150611312826112ab565b604082019050919050565b60006020820190508181036000830152611336816112fa565b9050919050565b7f45524332303a20696e73756666696369656e7420616c6c6f77616e6365000000600082015250565b6000611373601d83610b76565b915061137e8261133d565b602082019050919050565b600060208201905081810360008301526113a281611366565b9050919050565b7f45524332303a207472616e736665722066726f6d20746865207a65726f20616460008201527f6472657373000000000000000000000000000000000000000000000000000000602082015250565b6000611405602583610b76565b9150611410826113a9565b604082019050919050565b60006020820190508181036000830152611434816113f8565b9050919050565b7f45524332303a207472616e7366657220746f20746865207a65726f206164647260008201527f6573730000000000000000000000000000000000000000000000000000000000602082015250565b6000611497602383610b76565b91506114a28261143b565b604082019050919050565b600060208201905081810360008301526114c68161148a565b9050919050565b7f45524332303a207472616e7366657220616d6f756e742065786365656473206260008201527f616c616e63650000000000000000000000000000000000000000000000000000602082015250565b6000611529602683610b76565b9150611534826114cd565b604082019050919050565b600060208201905081810360008301526115588161151c565b905091905056fea264697066735822122074646335d17cdc15f723ff0d5459f9b71e04e2199e9508d99dad95f8d5c8dd3c64736f6c63430008090033",
  "linkReferences": {},
  "deployedLinkReferences": {}
}